:100000000C94AF0E0C94E00E0C94E00E0C94E00EE9
:100010000C94E00E0C94E00E0C94E00E0C94E00EA8
:100020000C94E00E0C94E00E0C94E00E0C94E00E98
:100030000C94E00E0C94E00E0C94E00E0C94E00E88
:100040000C94E00E0C9449720C94E00E0C94E00EAB
:100050000C94E00E0C94E00E0C9438650C94C66180
:100060000C94E00E0C94EF440C94E00E0C94E00E13
:100070000C94E00E0C94E00E0C94E00E0C94E00E48
:100080000C94E00E0C94E00E0C94E00E0C94E00E38
:100090000C94E00E0C94E00E0C94E00E0C94E00E28
:1000A0000C94E00E0C94E00E0C94E00E0C94E00E18
:1000B0000C94E00E0C94E00E0C94E00E0C94E00E08
:1000C0000C94E00E0C94E00E0C94E00E0C94E00EF8
:1000D0000C94E00E0C94E00E0C94E00E0C94E00EE8
:1000E0000C94E00E43604660356039603F607D608F
:1000F0004A604E60546058605C60626066606A602E
:100100007D60706074607860E260E760EC60F6606B
:10011000006179610A6112611A6124612E6138619E
:100120004761516179615B6165616F61B865C66501
:10013000E565F3650E661166146617661A661D6638
:10014000206623662D66084AD73B3BCE016E84BCF1
:10015000BFFDC12F3D6C74319ABD56833DDA3D0021
:10016000C77F11BED9E4BB4C3E916BAAAABE00006A
:1001700000803F05A84CCDB2D44EB93836A9020C48
:1001800050B9918688083CA6AAAA2ABE0000008021
:100190003F0020746F6F206C6F6E672065787472FB
:1001A0007573696F6E2070726576656E7465640034
:1001B00020636F6C6420657874727573696F6E204C
:1001C00070726576656E746564005A20736F6E6434
:1001D0006520657874652E206C697400205A3A2079
:1001E0000020593A200042656420583A2000456EAC
:1001F000642066696C65206C697374004265676988
:100200006E2066696C65206C6973740046696C6564
:100210002064656C657465643A0044656C65746956
:100220006F6E206661696C65642C2046696C653A66
:1002300020006F70656E206661696C65642C2046D5
:10024000696C653A20002569206D696E2C2025694E
:1002500020736563004D4F52542E003F0020573AE3
:10026000007A5F6D696E3A2000795F6D61783A209F
:1002700000785F6D696E3A200053657474696E672B
:100280002054726176656C20416363656C657261B0
:1002900074696F6E3A200053657474696E672052FA
:1002A00065747261637420416363656C6572617427
:1002B000696F6E3A200053657474696E67205072DE
:1002C000696E7420416363656C65726174696F6EF9
:1002D0003A200053657474696E67205072696E74B9
:1002E00020616E642054726176656C2041636365A1
:1002F0006C65726174696F6E3A2000546F6F20668E
:1003000061722066726F6D207265666572656E63DC
:100310006520706F696E74002062797465732900BE
:1003200053657474696E67732053746F72656420CB
:1003300028003A20007A5F6D61783A20007A5F6D7C
:10034000696E3A2000446563616C616765205A00FC
:100350004D36303020486F74656E6420746F6F20A6
:10036000636F6C6420746F206368616E67652066DC
:10037000696C616D656E7400220A00556E6B6E6F5C
:10038000776E20636F6D6D616E643A202200202BC2
:1003900000200A436F72726563746564204265646D
:1003A000204865696768742076732E204265642052
:1003B000546F706F6C6F67793A200A00202B002011
:1003C00028302C30290A002020204F2D2D20465285
:1003D0004F4E54202D2D2B0A002020207C20202041
:1003E00020202020202020207C0A002020207C208B
:1003F000202020282D29202020207C20540A002085
:1004000054207C20202020202020202020207C2000
:10041000480A002046207C20282D29204E20282B09
:1004200029207C20470A002045207C2020202020F5
:100430002020202020207C20490A00204C207C20E5
:10044000202020282B29202020207C20520A002038
:1004500020207C20202020202020202020207C0AFA
:10046000002020202B2D2D2D204241434B202D2DCF
:100470002B0A00200A426564204865696768742079
:10048000546F706F6772617068793A200A004D6529
:10049000616E206F662073616D706C656420706F93
:1004A000696E74733A200020643A200020623A207A
:1004B0000045716E20636F656666696369656E7479
:1004C000733A20613A200028422961636B00284674
:1004D00029726F6E74002852296967687400284C6D
:1004E00029656674003F4E756D626572206F6620E7
:1004F00070726F626564202850296F696E74732072
:10050000697320696D706C61757369626C65202810
:1005100032206D696E696D756D292E0A0052756EF7
:100520006E696E6720696E204452592D52554E20D7
:100530006D6F646500473239204175746F204265E4
:1005400064204C6576656C696E670A003F28562901
:100550006572626F7365204C6576656C20697320E7
:10056000696D706C61757369626C652028302D341B
:10057000292E004E6F204C696E65204E756D6265A8
:1005800072207769746820636865636B73756D2C7E
:10059000204C617374204C696E653A20004D4F52B7
:1005A000542E005072696E7465722073746F70708F
:1005B00065642064756520746F206572726F727354
:1005C0002E2046697820746865206572726F7220EB
:1005D000616E6420757365204D39393920746F2040
:1005E000726573746172742E202854656D70657223
:1005F00061747572652069732072657365742E204D
:100600005365742069742061667465722072657325
:1006100074617274696E6729004E6F204368656368
:100620006B73756D2077697468206C696E65206ED8
:10063000756D6265722C204C617374204C696E6517
:100640003A2000636865636B73756D206D69736D27
:10065000617463682C204C617374204C696E653A38
:1006600020004C696E65204E756D6265722069735D
:10067000206E6F74204C617374204C696E65204E3F
:10068000756D6265722B312C204C617374204C693E
:100690006E653A20004D313130004D3834205820FD
:1006A00059205A20450025692068657572657320B8
:1006B0002569206D696E7574657300446F6E6520E1
:1006C0007072696E74696E672066696C6500204996
:1006D0006E76616C696420657874727564657220E9
:1006E0000000004D4300004D4300004D430000005A
:1006F000C0000080BF000000005761726E696E6725
:100700003A20486F6D696E672042756D70204469AC
:100710007669736F72203C203100205A3A20002005
:10072000593A200042656420583A20005265762EDE
:100730002064616E732058592061762E5A00207013
:100740006F736974696F6E206F7574206F662072A5
:10075000616E67652E003F50726F626520004572C2
:10076000726F722077726974696E6720746F2045AA
:100770004550524F4D210020627974657329002045
:1007800073746F7265642073657474696E67732027
:1007900072657472696576656420280048617264C8
:1007A000636F6465642044656661756C742053658D
:1007B0007474696E6773204C6F61646564002020F7
:1007C0004D383531205A005A2D50726F6265204FD6
:1007D000666673657420286D6D293A0020204D32BD
:1007E00030302044300020204D3230302044002072
:1007F00044697361626C65640046696C616D656E25
:10080000742073657474696E67733A00204C00201D
:10081000430020440020490020204D333031205037
:10082000005049442073657474696E67733A002000
:100830005A0020590020204D323036205800486F91
:100840006D65206F666673657420286D6D293A00AA
:10085000204500205A00205800204200205400204B
:10086000204D323035205300416476616E636564FB
:10087000207661726961626C65733A20533D4D69FF
:100880006E20666565647261746520286D6D2F73D6
:10089000292C20543D4D696E2074726176656C2060
:1008A000666565647261746520286D6D2F73292CEF
:1008B00020423D6D696E696D756D207365676D656C
:1008C0006E742074696D6520286D73292C20583D45
:1008D0006D6178696D756D205859206A65726B205D
:1008E000286D6D2F73292C20205A3D6D6178696D1C
:1008F000756D205A206A65726B20286D6D2F7329E3
:100900002C2020453D6D6178696D756D2045206A0C
:1009100065726B20286D6D2F7329002054002052C2
:100920000020204D323034205000416363656C65F7
:10093000726174696F6E733A20503D7072696E74A3
:10094000696E672C20523D72657472616374206118
:100950006E6420543D74726176656C002045002001
:100960005A0020590020204D3230312058004D616E
:1009700078696D756D20416363656C65726174693A
:100980006F6E20286D6D2F7332293A0020450020AC
:100990005A0020590020204D3230332058004D613C
:1009A00078696D756D206665656472617465732024
:1009B000286D6D2F73293A00204500205A002059D8
:1009C0000020204D39322058005374657073207018
:1009D000657220756E69743A0000002200250028B7
:1009E000002B002E00310034000201000005010838
:1009F000010B01000020002300260029002C002FFD
:100A0000003200000100000301060109010505058F
:100A100005070508080808020202020A0A08080475
:100A200004040401010101010101010303030303A3
:100A3000030303040707070C0C0C0C0C0C0C0C0232
:100A400002020206060606060606060B0B0B0B0B39
:100A50000B0B0B0102102020080810204010204032
:100A60008002010201080402010102040810204072
:100A70008080402010080402018004020180402090
:100A800010080402010804020101020408102040B9
:100A900080010204081020408000000A0B02090CAB
:100AA0000D0E080703040100000000000000000014
:100AB0000000000000000000000000000000000036
:100AC00000000000001211100000000000000000F3
:100AD0000000000000000000000000000000004DC9
:100AE0004F52542E00202D20496E76616C6964208F
:100AF0006578747275646572206E756D62657220BA
:100B000021002020506C616E6E65724275666665CC
:100B10007242797465733A20002046726565204DF3
:100B2000656D6F72793A20004A616E20313420324F
:100B300030313700436F6D70696C65643A20004452
:100B400061676F6D615F4A63615F4265642E4672E3
:100B500000207C20417574686F723A200032303179
:100B6000362D30342D32342031323A303000204CA2
:100B700061737420557064617465643A200020319B
:100B80002E312E302D524336004D61726C696E004D
:100B900020536F66747761726520526573657400C7
:100BA000205761746368646F6720526573657400D1
:100BB0002042726F776E206F757420526573657472
:100BC000002045787465726E616C2052657365749F
:100BD00000506F77657255700073746172740065B0
:100BE00072726F722077726974696E6720746F20F9
:100BF00066696C6500205A3A0020593A0020583A3C
:100C000000656E6473746F7073206869743A2000B5
:100C1000446F6E6520736176696E672066696C65E6
:100C20002E004D32390053442063617264206F6B93
:100C3000006F70656E526F6F74206661696C6564D9
:100C400000766F6C756D652E696E697420666169DA
:100C50006C656400534420696E6974206661696C38
:100C6000004D3234004D3233202573006461676FCC
:100C70006D6125692E670057726974696E6720740B
:100C80006F2066696C653A20002E0A006F70656EF1
:100C9000206661696C65642C2046696C653A2000A9
:100CA0002E0A0046696C652073656C656374656423
:100CB000002053697A653A200046696C65206F70A0
:100CC000656E65643A20006F70656E206661696CC0
:100CD00065642C2046696C653A20006F70656E2053
:100CE0006661696C65642C2046696C653A20004E2B
:100CF0006F772066726573682066696C653A2000BC
:100D00004E6F7720646F696E672066696C653A2064
:100D1000002220706F73002220706172656E743A39
:100D20002200535542524F5554494E452043414CA1
:100D30004C207461726765743A22004D4F52542EF4
:100D400000747279696E6720746F2063616C6C2027
:100D50007375622D67636F64652066696C657320C7
:100D60007769746820746F6F206D616E79206C658F
:100D700076656C732E204D4158206C6576656C202D
:100D800069733A004572726F723A00534420707270
:100D9000696E74696E67206279746520004E6F74A5
:100DA000205344207072696E74696E6700537461D9
:100DB0006E6461726420446576696174696F6E3A2D
:100DC00020004D65616E3A20002020207369676D18
:100DD000613A2000206D65616E3A20002020207A63
:100DE0003A2000206F66200020207A3A2000793ACD
:100DF0002000783A2000202020616E676C653A2040
:100E0000005374617274696E6720726164697573EE
:100E10003A2000506F736974696F6E696E67207451
:100E200068652070726F62652E2E2E0A003F4E7527
:100E30006D626572206F66206C65677320696E2035
:100E40006D6F76656D656E74206E6F7420706C6169
:100E5000757369626C652028302D3135292E0A00A2
:100E6000590058003F53616D706C652073697A6555
:100E7000206E6F7420706C61757369626C652028D8
:100E8000342D3530292E0A004D3438205A2D507219
:100E90006F6265205265706561746162696C697426
:100EA0007920746573740A003F566572626F7365CA
:100EB000204C6576656C206E6F7420706C61757364
:100EC00069626C652028302D34292E0A0020403AB2
:100ED000002042403A00202F0020423A00202F00FC
:100EE00020543A006F6B003F0020573A007C3C3E94
:100EF0005E2B3D3F2F5B5D3B2C2A225C00000135C1
:100F0000012001330140012C0160012501A0011CD9
:100F100001D001100110020A0140020401A002FCEC
:100F200000E002F7000003F4003003F100E003E703
:100F3000009004DE00E004DB007005D4002006CF42
:100F400000D006C9006007C5003008BF001009BA0C
:100F500000000AB500100BAF00B00CA900E00DA412
:100F60000000109C00B01197008013910070158C48
:100F70000090178300D0197D00601C7700001F715E
:100F80000090216C0020246600B026610020295CBE
:100F900000702B5700F02D510050304B008032462E
:100FA00000C034400040363B00C0373600203931A5
:100FB00000703A2A00703B2600703C2000F03C1C78
:100FC00000803E1400203F0A000040EFFE6265648E
:100FD000002C2073797374656D2073746F70706565
:100FE0006421204865617465725F49443A2000704D
:100FF000012C0190012701B0012201C0011D01F067
:101000000118011002130130020E01600209019063
:10101000020401C002FF000003FA004003F5008053
:1010200003F000D003EB002004E6007004E100E0D0
:1010300004DC004005D700C005D2004006CD00D03A
:1010400006C8008007C3003008BE00F008B900C021
:1010500009B400B00AAF00B00BAA00D00CA5000084
:101060000EA000500F9B00C010960050129100007F
:10107000148C00C0158700B0178200B0197D00D015
:101080001B7800001E730040206E0090226900F063
:1010900024640040275F0090295A00E02B5500107F
:1010A0002E500020304B0010324600E033410090BB
:1010B000353C001037370070383200A0392D00B0B1
:1010C0003A2800A03B2300603C1E00103D19009010
:1010D0003D1400103E0F00703E0A00C03E050000A7
:1010E0003F0000454D42414C4C454D454E54205427
:1010F0004845524D4951554500546865726D616CC3
:101100002052756E61776179004572723A205445BC
:101110004D502E204D4158004D415854454D5020C2
:10112000747269676765726564004572723A20542B
:10113000454D502E204D494E004D494E54454D5081
:1011400020747269676765726564004572723A203F
:1011500054454D502E204D494E20504C4154454150
:1011600055004D494E54454D50207472696767656E
:10117000726564004572723A2054454D502E204DE0
:10118000415820504C4154454155004D415854451B
:101190004D502074726967676572656400000021B4
:1011A00000240027002A002D003000330001010038
:1011B00000040107010A01434F4D4D554E4943417B
:1011C00054494F4E0044525952554E004552524FC9
:1011D000525300494E464F004543484F00D811D363
:1011E00011CC11C511B7116F6666004445425547D1
:1011F0003A004D313133205300205A3A0020593AF9
:101200000020436F756E7420583A200020453A0044
:10121000205A3A0020593A00583A004649524D5750
:101220004152455F4E414D453A4D61726C696E20A9
:10123000312E312E302D524336202847697468757F
:10124000622920534F555243455F434F44455F55F4
:10125000524C3A68747470733A2F2F6769746875CA
:10126000622E636F6D2F4D61726C696E4669726D8F
:10127000776172652F4D61726C696E2050524F54C8
:101280004F434F4C5F56455253494F4E3A312E30E3
:10129000204D414348494E455F545950453A4469B1
:1012A0007363456173793230302045585452554448
:1012B00045525F434F554E543A3120555549443AB3
:1012C00063656465326132662D343161322D3437A5
:1012D00034382D396231322D633535633632663319
:1012E000363766660A0023646566696E65202044A9
:1012F000454641554C545F4B642000236465666944
:101300006E65202044454641554C545F4B69200092
:1013100023646566696E65202044454641554C54FA
:101320005F4B702000504944204175746F74756E96
:10133000652066696E697368656421205075742044
:10134000746865206C617374204B702C204B69208D
:10135000616E64204B6420636F6E7374616E74738E
:101360002066726F6D2062656C6F7720696E746F96
:1013700020436F6E66696775726174696F6E2E685F
:1013800000504944204175746F74756E6520666124
:10139000696C6564212074696D656F7574005049CE
:1013A00044204175746F74756E65206661696C6563
:1013B00064212054656D7065726174757265207466
:1013C0006F6F206869676800204B643A2000204BEB
:1013D000693A2000204B703A200020436C617373FF
:1013E00069632050494420002054753A2000204B66
:1013F000753A2000206D61783A2000206D696E3AC0
:10140000200020643A200020626961733A20006F56
:101410006B00457272657572206465206368617542
:101420006666650048656174696E67206661696C0F
:101430006564004D4F52542E00627573793A2070E6
:10144000617573656420666F7220696E70757400D3
:10145000627573793A2070617573656420666F7286
:10146000207573657200627573793A2070726F63CC
:10147000657373696E67005072696E746572206877
:10148000616C7465642E206B696C6C282920636123
:101490006C6C656421002200656E71756575656907
:1014A0006E67202200000000C000004D43000000D5
:1014B000000000A0400000A0400000004000004FDD
:1014C0004300004E4300004D43FF01FF24F4D4309D
:1014D00050C38E20C2A24017828B7011127A910DD8
:1014E000816CD90AA861E108C758660761514306B3
:1014F0001E4B5D05C145A7041A411104093D98031F
:10150000713931034036DB0265339102D430540225
:10151000802E1D02632CEE01752AC501B028A001A2
:10152000102781018F2564012B244B01E022340117
:10153000AC211F018D200D01801FFC00841EED00D9
:10154000971DDF00B81CD200E61BC600201BBC00A4
:10155000641AB200B219A8000A19A0006A1899000A
:10156000D117910040178B00B516840031167E000C
:10157000B31579003A157300C7146F0058146A0048
:10158000EE1366008813630025135E00C7125B002C
:101590006C12570015125400C111510070114F0008
:1015A00021114B00D61049008D1047004610440011
:1015B00002104200C00F4000800F3E00420F3C006E
:1015C000060F3B00CB0E3800930E37005C0E350043
:1015D000270E3400F30D3200C10D3100900D3000A4
:1015E000600D2E00320D2D00050D2C00D90C2B00A6
:1015F000AE0C2900850C29005C0C2700350C270057
:101600000E0C2600E80B2400C40B2400A00B2300C2
:101610007D0B23005A0B2100390B2100180B2000F1
:10162000F80A1F00D90A1E00BB0A1E009D0A1D00F1
:10163000800A1D00630A1C00470A1B002C0A1B00BD
:10164000110A1A00F7091A00DD091900C409190066
:10165000AB091900920917007B09180063091700EC
:101660004C09160036091600200916000A09150053
:10167000F5081500E0081400CC081400B8081400A0
:10168000A4081400900813007D0812006B081300D2
:1016900058081200460812003408110023081100EF
:1016A0001208110001081100F0071000E0071000F7
:1016B000D0071000C0071000B0070F00A1071000EE
:1016C00091070E0083070F0074070F0065070E00D7
:1016D00057070E0049070E003B070D002E070E00AE
:1016E00020070D0013070D0006070D00F9060C007A
:1016F000ED060D00E0060C00D4060C00C8060C0038
:10170000BC060C00B0060C00A4060B0099060C00E9
:101710008D060B0082060B0077060B006C060B0093
:1017200061060A0057060B004C060A0042060A0032
:1017300038060A002E060A0024060A001A060A00C5
:101740001006090007060A00FD050900F405090056
:10175000EB050900E2050900D9050900D0050900DB
:10176000C7050900BE050900B5050800AD0508005C
:10177000A50509009C050800940508008C050800D3
:10178000840508007C050800740508006C05070046
:10179000650508005D050700560508004E050700B1
:1017A0004705070040050800380507003105070018
:1017B0002A050700230507001C050600160507007B
:1017C0000F0507000805060002050700FB040600D8
:1017D000F5040700EE040600E8040600E204070032
:1017E000DB040600D5040600CF040600C904060089
:1017F000C3040600BD040600B7040600B1040500DA
:10180000AC040600A6040600A00405009B04060024
:1018100095040500900406008A040500850405006F
:10182000800406007A0405007504050070040500B4
:101830006B04050066040500610405005C040500F6
:1018400057040500520405004D0405004804050036
:10185000430405003E0404003A0405003504050075
:10186000300404002C0405002704040023040500B0
:101870001E0404001A0404001604050011040400E8
:101880000D0404000904050004040400000404001D
:10189000FC030400F8030400F4030400F003040054
:1018A000EC030400E8030400E4030400E003040084
:1018B000DC030400D8030400D4030400D0030400B4
:1018C000CC030400C8030300C503030024F404D9B7
:1018D000201BC40C5C0E9804C4095F0265077101EB
:1018E000F405F900FB04B30048048700C103690054
:1018F0005803550003034500BE023A00840231003C
:1019000053022A002902250004022000E4011C00E1
:10191000C8011900AF0117009801140084011300D9
:10192000710110006101100051010E0043010D0012
:1019300036010B002B010B0020010B0015010900E3
:101940000C01090003010800FB000800F300080077
:10195000EB000700E4000600DE000600D8000600E9
:10196000D2000600CC000500C7000500C20005003B
:10197000BD000400B9000400B5000400B10004007B
:10198000AD000400A9000400A5000300A2000300AC
:101990009F0004009B0003009800030095000200D4
:1019A00093000300900003008D0002008B000300F1
:1019B000880002008600020084000300810002000B
:1019C0007F0002007D0002007B000200790002001F
:1019D000770001007600020074000200720001002E
:1019E000710002006F0002006D0001006C00020037
:1019F0006A00010069000200670001006600010042
:101A00006500010064000200620001006100010045
:101A1000600001005F0002005D0001005C00010049
:101A20005B0001005A00010059000100580001004C
:101A3000570001005600010055000100540001004C
:101A4000530000005300010052000100510001004A
:101A5000500001004F0001004E0000004E00010048
:101A60004D0001004C0001004B0000004B00010044
:101A70004A00010049000100480000004800010040
:101A8000470001004600000046000100450000003C
:101A90004500010044000100430000004300010034
:101AA000420000004200010041000000410001002E
:101AB000400001003F0000003F0001003E00000028
:101AC0003E0001003D0000003D0001003C00000020
:101AD0003C0000003C0001003B0000003B00010016
:101AE0003A0000003A00010039000000390001000E
:101AF0003800000038000000380001003700000006
:101B000037000100360000003600000036000100FA
:101B100035000000350000003500010034000000F1
:101B200034000000340001003300000033000000E6
:101B300033000100320000003200000032000100DA
:101B400031000000310000003100010030000000D1
:101B500030000000300001002F0000002F000000C6
:101B60002F0000002F0001002E0000002E000000BA
:101B70002E0001002D0000002D0000002D000000AF
:101B80002D0001002C0000002C0000002C000000A3
:101B90002C0001002B0000002B0000002B00000097
:101BA0002B0001002A0000002A0000002A0000008B
:101BB0002A0001002900000029000000290000007F
:101BC0002900000029000100280000002800000072
:101BD0002800000028000000280001002700000065
:101BE0002700000027000000270000002700010058
:101BF000260000002600000026000000260000004D
:101C0000260001002500000025000000250000003E
:101C10002500000025000000250001002400000030
:101C20002400000024000000240000002400010023
:101C30002300000023000000230000002300000018
:101C40002300000023000000230001002200000008
:101C500022000000220000002200000022000000FC
:101C600022000100210000002100000021000000EE
:101C700021000000210000002100000021000100DF
:101C800020000000200000002000000020000000D4
:101C900020000000200000002000000020000100C3
:101CA0001F0000001F0000001F0000001F000000B8
:101CB0001F0000001F0000001F0001001E000000A8
:101CC0001E0000001E0000001E0000004D383420E1
:101CD000582059205A20450020746F6F206C6F6E79
:101CE0006720657874727573696F6E20707265769F
:101CF000656E7465640020636F6C6420657874722F
:101D00007573696F6E2070726576656E74656400B8
:101D10006563686F3A00526573656E643A20004EE1
:101D2000414E494E495459494E46CDCCCC3D0AD737
:101D3000233C17B7D13877CC2B329595E6241FB1C9
:101D40004F0A000020410000C84200401C4620BC51
:101D5000BE4CCA1B0E5AAEC59D7414A5F3A4112423
:101D60001FBECFEFD1E2DEBFCDBF00E00CBF14E05D
:101D7000A0E0B2E0E4E8F4E601E00BBF02C00790A7
:101D80000D92A834B107D9F722E1A8E4B4E001C06C
:101D90001D92AF3FB207E1F71EE0CEEADEE000E0C1
:101DA00006C021970109802FFE010E94A5A6CD3A09
:101DB000D10780E00807A9F70E9467900C9430B221
:101DC0000C9400002F923F924F925F926F927F92FD
:101DD0008F929F92AF92BF92CF92DF92EF92FF923B
:101DE0000F931F93CF93DF93CDB7DEB7CB59D109B4
:101DF0000FB6F894DEBF0FBECDBF2091860630919E
:101E0000870640E6429FC001439F900D11248A5FE0
:101E10009A4F90935B0480935A048091D70F80FF70
:101E200022C0E0E1FDE18491882341F09091C0005F
:101E300095FFFCCF8093C6003196F5CFE0915A0410
:101E4000F0915B048191882339F09091C00095FF57
:101E5000FCCF8093C600F6CF8091C00085FFFCCFF9
:101E60008AE08093C60020915A0430915B04F90106
:101E700080812F5F3F4F8032D1F3F0935B04E0937A
:101E80005A048E3469F010915A0400915B046AE29E
:101E900070E0812F902F0E9462AA0097D1F420C099
:101EA000818190ED980F9A3010F08D3261F7329663
:101EB000DF0131962C9120532A30D0F3CD01FC0163
:101EC000019620812032D9F3F0935B04E0935A0409
:101ED000DACFFC0131968291803231F08A3221F0E2
:101EE000A12FB02F2D9102C01082F5CFFD0180816E
:101EF00011968032D9F380538A3020F0E0E1FDE181
:101F00000C94C52700E010E09AE0909FB001919FEB
:101F1000700D11248B01005311098191080F111DBF
:101F200087FD1A95808180538A3078F3CF013196EE
:101F3000DC013C913032D1F39093590480935804E2
:101F400041E050E05093530940935209273481F007
:101F50002CF4243411F40C94B22707C02D3409F466
:101F6000DFC7243511F40C94422780E00C94B3278A
:101F70000C31110509F452C578F40430110530F420
:101F80008091460202301105B0F126C104301105DE
:101F900009F4FDC40C94B2270A35110509F430C7C1
:101FA00000F50D31110509F4B6C60E31110511F019
:101FB0000C94B2270E946D3D0E9401680E94CC449F
:101FC00080E090E0A0E7B3E4809373029093740202
:101FD000A0937502B09376020E94BE43E6EEF1E054
:101FE000A5C60B35110509F40FC70C35110509F409
:101FF00010C70C94B227882311F40C94B2270E94C6
:10200000753F83E699E00E9417710E949643809184
:10201000D70F83FD96C0C0906F09D0907009E090F3
:102020007109F09072092091A6063091A70640919F
:10203000A8065091A906C701B6010E94C8A64B0187
:102040005C0120E030E0A9010E94ACAE882309F4D5
:1020500078C0209182023091830240918402509195
:1020600085026091F5087091F6088091F7089091CB
:10207000F8080E94ACAE87FF29C0C092A606D09295
:10208000A706E092A806F092A906E0E1FDE184919E
:10209000882341F09091C00095FFFCCF8093C6004B
:1020A0003196F5CFE0EBF1E08491882341F09091F7
:1020B000C00095FFFCCF8093C6003196F5CF80918C
:1020C000C00085FFFCCF8AE08093C600C501B40143
:1020D0000E940DA897FF07C0909580957095619517
:1020E0007F4F8F4F9F4F6E397140810591054CF1A5
:1020F000C092A606D092A706E092A806F092A90682
:10210000E0E1FDE18491882341F09091C00095FFCA
:10211000FCCF8093C6003196F5CFE2E9F1E08491DF
:10212000882341F09091C00095FFFCCF8093C600BA
:102130003196F5CF8091C00085FFFCCF8AE0809377
:10214000C60020916309309164094091650950915E
:10215000660960919A0670919B0680919C06909109
:102160009D060E94ACAE811117C020916709309185
:1021700068094091690950916A0960919E067091C1
:102180009F068091A0069091A1060E94ACAE81119D
:1021900003C00E946C3E1CC060910102709102025B
:1021A000072E000C880B990B0E94B2AE209173028F
:1021B0003091740240917502509176020E949DAA5E
:1021C00020E030E048EC52E40E94A5A70E94393E8E
:1021D0000E94163E0C94B227882311F40C94B22767
:1021E0000E94753F89E40E942C3F882329F00E94B9
:1021F0004C3F6B017C0103C0C12CD12C76018AE4D9
:102200000E942C3F882349F00E944C3FE0966CAF1F
:102210007DAF8EAF9FAFE09706C0E0961CAE1DAEBF
:102220001EAE1FAEE097E0962CAD3DAD4EAD5FAD5E
:10223000E097C701B6010E94FCA8C057DF4F688332
:1022400079838A839B83C059D04080919A0690916C
:102250009B06A0919C06B0919D06AC968CAF9DAF5D
:10226000AEAFBFAFAC97A7019601BC01CD010E94F4
:10227000C9A6C857DF4F688379838A839B83C85870
:10228000D04080919E0690919F06A091A006B091AB
:10229000A106E4968CAF9DAFAEAFBFAFE497E096DA
:1022A0002CAD3DAD4EAD5FADE097BC01CD010E94C0
:1022B000C9A6C457DF4F688379838A839B83CC5830
:1022C000D0408091A2069091A306A091A406B0915F
:1022D000A506E8968CAF9DAFAEAFBFAFE8979C0167
:1022E000AD0160916B0970916C0980916D099091BD
:1022F0006E090E94C8A6EC966CAF7DAF8EAF9FAF03
:10230000EC9780916F0990917009A0917109B0913B
:102310007209CC56DF4F88839983AA83BB83C45943
:10232000D0408091A6069091A706A091A806B091F2
:10233000A906C458DF4F88839983AA83BB83CC57EF
:10234000D040D701C601B058A4968CAF9DAFAEAFB8
:10235000BFAFA497E0968CAD9DADAEADBFADE0979D
:10236000B058A8968CAF9DAFAEAFBFAFA897809185
:10237000630990916409A0916509B0916609C058FC
:10238000DF4F88839983AA83BB83C058D040C85746
:10239000DF4F288139814A815B81C858D040BC0118
:1023A000CD010E94C8A66B017C01809167099091C4
:1023B0006809A0916909B0916A09CC57DF4F8883F9
:1023C0009983AA83BB83C458D040C457DF4F288168
:1023D00039814A815B81CC58D040BC01CD010E943B
:1023E000C8A64B015C01A7019601A4966CAD7DAD1A
:1023F0008EAD9FADA4970E949DAA2B013C01A50123
:102400009401A8966CAD7DAD8EAD9FADA8970E944E
:102410009DAA9B01AC01C301B2010E94C9A62B0178
:102420003C01A5019401A4966CAD7DAD8EAD9FAD30
:10243000A4970E949DAA4B015C01A7019601A89652
:102440006CAD7DAD8EAD9FADA8970E949DAA9B01FE
:10245000AC01C501B4010E94C8A6A30192010E946B
:102460003CA76B017C0120E030E0A9010E94ACAEEA
:1024700087FF0AC02BED3FE049EC50E4C701B601ED
:102480000E94C9A66B017C010230110551F42BEDAD
:102490003FE049EC50E4C701B6010E94C8A66B01B9
:1024A0007C0120E030E0A901C701B6010E94ACAE7A
:1024B00081112EC0C058DF4F288139814A815B814C
:1024C000C058D040AC966CAD7DAD8EAD9FADAC9795
:1024D0000E94ACAE81111CC0CC57DF4F28813981DE
:1024E0004A815B81C458D040E4966CAD7DAD8EAD21
:1024F0009FADE4970E94ACAE81110AC02BED3FE086
:1025000049EC50E4C701B6010E94C9A66B017C01E9
:10251000C057DF4F288139814A815B81C059D04043
:10252000C701B6010E949DAAEC962CAD3DAD4EAD03
:102530005FADEC975F770E94FCA84B015C012FE632
:1025400032E143E85AE30E94ACAE87FD1CC2C501EC
:10255000B4010E943EA80E9412A81B01672B19F427
:1025600022242394312CB10180E090E00E94B0AE8F
:102570004B015C019B01AC01C701B6010E94A5A7FC
:10258000AC966CAF7DAF8EAF9FAFAC97A5019401B9
:10259000EC966CAD7DAD8EAD9FADEC970E94A5A77E
:1025A000C058DF4F688379838A839B83C058D040AB
:1025B000C458DF4F288139814A815B81CC57D04094
:1025C000CC56DF4F688179818A819B81C459D04084
:1025D0000E94C8A6A50194010E94A5A7CC57DF4F71
:1025E000688379838A839B83C458D04020E030E09D
:1025F00040E05FE3AC966CAD7DAD8EAD9FADAC972A
:102600000E949DAAAC962CAD3DAD4EAD5FADAC9792
:102610000E949DAA9B01AC0160E070E080E89FE30E
:102620000E94C8A6EC966CAF7DAF8EAF9FAFEC97C3
:10263000E8968CAD9DADAEADBFADE89789879A8722
:10264000AB87BC87C458DF4F88819981AA81BB8141
:10265000CC57D0408D879E87AF87B88B60910102A1
:1026600070910202072E000C880B990B0E94B2AEEB
:10267000209173023091740240917502509176025C
:102680000E949DAA20E030E040E752E40E94A5A706
:1026900020E030E048EC52E40E94A5A7C458DF4F88
:1026A000688379838A839B83CC57D040A1964FACB3
:1026B000A197A2965FACA297A3966FACA397A4969E
:1026C0007FACA497E1961FAEE197A1E0B0E0E6965B
:1026D000BFAFAEAFE697E6962EAD3FADE6972215BB
:1026E000330509F426C1E196BFADE197BF5FE196DE
:1026F000BFAFE197B9310CF04BC0EC962CAD3DADBE
:102700004EAD5FADEC97A8966CAD7DAD8EAD9FAD37
:10271000A8970E949DAA6B017C01AC962CAD3DADA3
:102720004EAD5FADAC97B201C3010E949DAAA70157
:1027300096010E94C9A67B018C01EC962CAD3DADA3
:102740004EAD5FADEC97B201C3010E949DAA4B0153
:102750005C01AC962CAD3DAD4EAD5FADAC97A8968F
:102760006CAD7DAD8EAD9FADA8970E949DAA9B01DB
:10277000AC01C501B4010E94C8A62B013C01A70110
:10278000B801A8964CAF5DAF6EAF7FAFA89760C0A1
:10279000E696EEADFFADE697BF0180E090E00E94C7
:1027A000B0AEAC962CAD3DAD4EAD5FADAC970E94DA
:1027B0009DAA4B015C010E94A2A76B017C01C5018F
:1027C000B4010E94C1A94B015C01A7019601A49626
:1027D0006CAD7DAD8EAD9FADA4970E949DAA2B01DF
:1027E0003C01A5019401E0966CAD7DAD8EAD9FAD31
:1027F000E0970E949DAA9B01AC01C301B2010E9417
:10280000C9A62B013C01A5019401A4966CAD7DAD38
:102810008EAD9FADA4970E949DAA4B015C01A701BC
:102820009601E0966CAD7DAD8EAD9FADE0970E94B8
:102830009DAA9B01AC01C501B4010E94C8A6A8963F
:102840006CAF7DAF8EAF9FAFA897E1961FAEE197BB
:102850009201A301C857DF4F688179818A819B81EA
:10286000C858D0400E94C9A669837A838B839C8311
:10287000A8962CAD3DAD4EAD5FADA897C457DF4FC8
:10288000688179818A819B81CC58D0400E94C9A6F9
:102890006D837E838F839887C058DF4F288139816D
:1028A0004A815B81C058D04069857A858B859C853B
:1028B0000E94C9A669877A878B879C87CC57DF4F90
:1028C000288139814A815B81C458D0406D857E85DD
:1028D0008F8598890E94C9A66D877E878F87988B80
:1028E000CE0101960E941771E984FA840B851C853C
:1028F0002D813E814F81588569817A818B819C81B0
:102900001F92C458DF4F88809980AA80BB80CC5723
:10291000D040DE011D966D010E94177DE696EEAD5A
:10292000FFADE6973196E696FFAFEEAFE6970F90D4
:10293000D2CEE0906B09F0906C0900916D09109176
:102940006E09209167093091680940916909509199
:102950006A09609163097091640980916509909199
:1029600066091F92C458DF4F88809980AA80BB8077
:10297000CC57D040EFE6CE2EE9E0DE2E0E94177D48
:102980000E94163E0F900E9496430C94B22780E559
:102990000E942C3F882371F0809150049091510443
:1029A0004AE050E060E070E001960E940CAD6B01DF
:1029B0007C0103C0C12CD12C760183E50E942C3F01
:1029C000882361F00E944C3F20E030E04AE754E465
:1029D0000E949DAA0E9412A86B017C010E940168BE
:1029E0000E94964380914A0990914B09A0914C090D
:1029F000B0914D09C80ED91EEA1EFB1E0E94BA6195
:102A0000DC01CB018C199D09AE09BF09B7FD02C0DD
:102A10000C94B22780E00E944E6BF0CF0E940168B8
:102A20000E949C560E94CC4480E1EAE9F6E0A3E6CD
:102A3000B9E001900D928A95E1F71092730210921D
:102A40007402109275021092760288E50E942C3F63
:102A5000F82E89E50E942C3F082F8AE50E942C3F22
:102A6000182FF11005C0011105C091E0982705C08D
:102A7000011102C090E001C0982F9093000220E065
:102A800030E040EE50E46091A2067091A306809180
:102A9000A4069091A5060E94ACAE1816B4F180E091
:102AA00090E0A0EEB0E480936B0990936C09A09342
:102AB0006D09B0936E0920E030E040E752E4609188
:102AC000C10F7091C20F8091C30F9091C40F0E94EB
:102AD0009DAA609373027093740280937502909321
:102AE00076020E946C3E0E94016880916B09909171
:102AF0006C09A0916D09B0916E098093A206909324
:102B0000A306A093A406B093A506809100028111AC
:102B100002C0FF2021F080E090E00E949169809146
:102B20000002811102C0002321F081E090E00E94A8
:102B3000916980910002882309F45BC00E94203EC5
:102B400080E090E0AAECB2E480936309909364097A
:102B5000A0936509B093660980E090E0A2EAB2E430
:102B60008093670990936809A0936909B0936A09F3
:102B70008091A2069091A306A091A406B091A5060B
:102B800080936B0990936C09A0936D09B0936E09C3
:102B900080E090E0AAEFB5E4809373029093740212
:102BA000A0937502B09376020E946C3E0E94016869
:102BB0008091630990916409A0916509B0916609BB
:102BC00080939A0690939B06A0939C06B0939D06D3
:102BD0008091670990916809A0916909B0916A098B
:102BE00080939E0690939F06A093A006B093A106A3
:102BF00045C0112309F46BC080916009882309F452
:102C000064C080916109882309F45FC080909A06AE
:102C100090909B06A0909C06B0909D06C0909E064A
:102C2000D0909F06E090A006F090A10620E030E052
:102C300040E050ECC501B4010E94EFA887FD23C01D
:102C400020E030E04DE453E4C501B4010E94ACAE95
:102C50001816CCF020E030E040EB51ECC701B60193
:102C60000E94EFA887FD0FC020E030E048E353E466
:102C7000C701B6010E94ACAE18162CF082E090E0BD
:102C80000E94916924C0E0E1FDE18491882341F034
:102C90009091C00095FFFCCF8093C6003196F5CF90
:102CA000EAECF1E08491882341F09091C00095FF17
:102CB000FCCF8093C6003196F5CF8091C00085FF90
:102CC000FCCF8AE08093C60002C00E944B3D0E9468
:102CD000203E1092210280914A0490914B04A091D1
:102CE0004C04B0914D048093730290937402A093AE
:102CF0007502B093760280914804909149049093B4
:102D00000202809301020E949643109205050E94E0
:102D10000B680C94B2270E94C9280C94B22790919A
:102D2000C00095FFFCCF8093C6003196849181113D
:102D3000F6CF20E030E0A90160919A0670919B06E1
:102D400080919C0690919D060E94C9A627E137EBD1
:102D500041ED58E30E94C9A642E00E94BE8AE1EE1E
:102D6000F1E08491882341F09091C00095FFFCCF61
:102D70008093C6003196F5CF20E030E048EA51E478
:102D800060919E0670919F068091A0069091A10689
:102D90000E94C9A627E137EB41ED58E30E94C9A67E
:102DA00042E00E94BE8AECEDF1E08491882341F07C
:102DB0009091C00095FFFCCF8093C6003196F5CF6F
:102DC00027E137EB41ED58E36091A2067091A3062D
:102DD0008091A4069091A5060E94C9A642E00E9497
:102DE000BE8A8091C00085FFFCCF8AE08093C60038
:102DF0000E94A1430E948B690E940B680C94B22729
:102E0000109257040C94B22781E0809357040C94DD
:102E1000B32785E40E942C3FB82E811102C00E9486
:102E2000016840E9842E42E0942E5AE9C52E56E00E
:102E3000D52E64E5E62E69E0F62EA12C00E010E028
:102E4000D4018D914D010E942C3F882309F44EC07E
:102E5000F6012081318142815381C856DF4F28839A
:102E6000C859D040C756DF4F3883C959D040C656DD
:102E7000DF4F4883CA59D040C556DF4F5883CB59DE
:102E8000D0400E944C3FD6016D937D938D939C93CF
:102E90001397C856DF4F2881C859D040C756DF4F17
:102EA0003881C959D040C656DF4F4881CA59D040F1
:102EB000C556DF4F5881CB59D04003301105B1F0D2
:102EC0000E94C8A69B01AC01F701608171818281DB
:102ED00093810E94C9A6D7016D937D938D939C9396
:102EE0001397C8010E94E63EAA24A3940F5F1F4FC8
:102EF000B4E0CB0ED11CE4E0EE0EF11C0430110561
:102F000009F09ECFAA2021F00E94203E0C94B22707
:102F1000BB2011F40C94B2270E94DD8D0C94B227D3
:102F20000F36110509F44CC508F0B3C00033110584
:102F300009F4E9C408F052C00931110509F494C23A
:102F400058F50531110509F47AC2D0F402311105A2
:102F500009F469C60431110509F41CC201311105D7
:102F600011F00C94B2275F988A989FB7F8948091DB
:102F700008018E7F809308019FBF12980C94B2279E
:102F80000731110509F45FC208F063C21092DB0F2C
:102F90001092DC0F0C94B2270E31110509F480C297
:102FA00088F40B31110509F477C208F467C20C31BB
:102FB000110511F00C94B22740E060E00E94E94F47
:102FC0000C94B2270032110509F4A4C308F4F1C32C
:102FD0000A32110509F455C40C94B22704351105C1
:102FE00009F421C680F50035110509F40FC688F4EF
:102FF0000C34110509F48BC40D34110509F4A1C476
:103000000B34110511F00C94B2270E94AE950C946C
:10301000B2270235110509F4FDC508F0FFC50E946D
:10302000F8630E9401680E94066B1092D60F1092FE
:10303000D50F68EE73E080E090E00E948261269AEE
:103040002E9A0C94B2270936110509F4C5C470F400
:103050000C35110509F406C60836110509F475C4C6
:103060000535110511F00C94B227E1C50B36110599
:1030700009F4BBC508F493C50D36110509F4B4C4B1
:103080000E36110511F00C94B2270E94DAA40C94AC
:10309000B2270C3D110511F40C94F12008F052C038
:1030A0000C38110509F494C4F8F40337110509F438
:1030B00069C650F40137110509F486C408F066C6E4
:1030C00085E592E00E94176B0837110509F462C686
:1030D0000937110509F465C60737110511F00C947D
:1030E000B227E0E3F3E069C60B3C110509F44DC7D4
:1030F00070F4083C110509F4DDC6093C110509F41A
:1031000023C70E3B110511F00C94B22771C40D3C7E
:10311000110509F4D1C708F455C70E3C110511F08B
:103120000C94B22750E9A52E52E0B52E6AE9C62EBE
:1031300066E0D62E70EDE72E74E0F72E00E010E08A
:103140000C94C7200C3AF1E01F0711F40C94BF2235
:1031500070F50E3231E0130711F40C94802290F4D4
:10316000023E110511F40C941C210D3291E0190757
:1031700011F40C9472210D3D110511F00C94B2273D
:103180000C9400210039A1E01A0711F40C94942248
:103190000A39B1E01B0711F40C9497220F32114049
:1031A00011F00C94B2270E94569F0C94B227073F4F
:1031B000F1E01F0711F40C943C2508F0CCC0053F4A
:1031C00031E0130711F40C94362510F00C943925D6
:1031D000043F114011F00C94B2272B961CAE1DAE8B
:1031E0001EAE1FAE2B9780E390E3A0E3B0E02796DE
:1031F0008CAF9DAFAEAFBFAF279784E690E06D96E2
:103200009FAF8EAF6D9744E0BE016D5B7F4FCE01E7
:10321000855A9F4F0E94179040E16EEC76E0CE01F8
:10322000855A9F4F0E94179040E169EB7FE0CE01E5
:10323000855A9F4F0E94179040E168E97AE0CE01DD
:10324000855A9F4F0E94179044E06DEA7FE0CE01BF
:10325000855A9F4F0E94179044E065EB7FE0CE01B6
:10326000855A9F4F0E94179044E061EB7FE0CE01AA
:10327000855A9F4F0E94179044E061ED7FE0CE0198
:10328000855A9F4F0E94179044E06DEC7FE0CE017D
:10329000855A9F4F0E94179044E069EC7FE0CE0171
:1032A000855A9F4F0E94179044E069EA7FE0CE0163
:1032B000855A9F4F0E94179044E065EA7FE0CE0157
:1032C000855A9F4F0E94179044E061EA7FE0CE014B
:1032D000855A9F4F0E9417904CE060ED74E0CE013C
:1032E000855A9F4F0E94179083E0A0968FAFA097BA
:1032F0006F968FAF6F976E961FAE6E972B961CAE24
:103300001DAE1EAE1FAE2B9741E0BE01635A7F4F2C
:10331000CE01855A9F4F0E94179044E0BE01695B21
:103320007F4FCE01855A9F4F0E94179041E0BE010A
:10333000615A7F4FCE01855A9F4F0E94179041E0FE
:10334000BE01625A7F4FCE01855A9F4F0E9417904F
:1033500010E00C94A0230335A3E01A0711F40C9499
:10336000502538F40835124011F40C94D6250C94ED
:10337000B227003AF3E01F0709F412C2073E1340D8
:1033800011F00C94B22781E0809346020E94A68F30
:103390000C94B227ECEFF1E08491882341F09091F6
:1033A000C00095FFFCCF8093C6003196F5CF809189
:1033B000C00085FFFCCF8AE08093C60010926112A6
:1033C0001092601240E050E0BA018CE090E10E945F
:1033D000CC578BE1ECE0F0E1DE01159601900D9207
:1033E0008A95E1F780910A1090910B109C838B8352
:1033F00085E193E09A83898340E050E0BE016F5FEE
:103400007F4F88EB93E00E94128CCE0101960E94C0
:10341000B76AEEEEF1E08491882341F09091C0000C
:1034200095FFFCCF8093C6003196F5CF8091C00008
:1034300085FFFCCF8AE08093C6000C94B2270E94DF
:103440003D540C94B22740E061E00E94E94F0C9497
:10345000B2278091DC0F882319F081E08093DB0F85
:103460000E94AE950C94B2278091DB0F882311F453
:103470000C94B2271092DB0F0C94B2278091DC0FD2
:10348000882311F40C94B22783E50E942C3F81110C
:103490000C94F0270C94B2270E94839E0C94B227C0
:1034A0008091DC0F882311F40C94B22786EA91E115
:1034B0000E94D15886EA91E10E9403591092DA0FD6
:1034C0001092D90FE0905804F09059048091DC0FCD
:1034D000882311F40C94B22786EA91E10E940359E3
:1034E0001092DB0F1D8218861C821B8285E193E0FF
:1034F0009A83898388E090E1909328108093271025
:10350000D7018C918F3209F082C06FE270E0C70161
:103510000E9462AA8C010F5F1F4F3AE0732EFE01DA
:1035200031964F010115110509F477C06FE270E083
:10353000C8010E9462AA6C01009709F46FC00817C5
:10354000190708F06BC05C01A01AB10AA501B80107
:10355000CE0180960E948BAAE0E2F0E0EC0FFD1F06
:10356000EA0DFB1D10828E01005E1F4FF801819154
:10357000882339F09091C00095FFFCCF8093C6005E
:10358000F6CF8091C00085FFFCCF7092C60060919D
:103590002710709128106115710511F06C5F7F4F35
:1035A00021E0AE01405E5F4FCE0105960E94135FA1
:1035B000811125C0E2E3F2E08491882371F09091BB
:1035C000C00095FFFCCF8093C6003196F5CF909157
:1035D000C00095FFFCCF8093C600D8018D918D016E
:1035E0008111F5CF8091C00085FFFCCF8EE28093E2
:1035F000C600CE0101960E94B76A0C94B227909241
:1036000028108092271086010F5F1F4F8BCF89E211
:1036100090E19093281080932710870160912710E4
:10362000709128106115710511F06C5F7F4F18A221
:103630001BA222E0A801CE0180960E94135F811197
:1036400002C0F12C14C0CE0180960E943D8B8823CD
:10365000C1F361E0CE0180960E94B558009789F3CE
:1036600025EEFC0120831BA20E943E4CF82ECE01C9
:1036700080960E949043F11003C0EAE1F2E02FC06F
:10368000ECE0F2E08491882341F09091C00095FF36
:10369000FCCF8093C6003196F5CFF8018191882345
:1036A00039F09091C00095FFFCCF8093C600F6CF13
:1036B0008091C00085FFFCCF8AE08093C600109205
:1036C0005712109258121092591210925A121CC08E
:1036D0009091C00095FFFCCF8093C60031968491F5
:1036E0008111F6CFF8018191882339F09091C000C3
:1036F00095FFFCCF8093C600F6CF8091C00085FF78
:10370000FCCF8EE28093C600CE0101960E94B76A7C
:103710000C94B2278091DB0F81110E940168009107
:1037200058041091590461E270E0C8010E9462AA35
:10373000009719F08C010F5F1F4F80E50E942C3F0E
:10374000882349F0FF24F394809150049091510410
:103750008017910708F0F12C8091DC0F882311F479
:103760000C94B2274F2D61E0C8010E94E94F83E518
:103770000E942C3F882349F080915004909151047D
:103780008017910710F40C9403288091DC0F882394
:1037900019F081E08093DB0FF1100C94B22760CE1A
:1037A00021E02093DA0F40E060E00E94E94F0C94A2
:1037B000B2270E94CF8BBC0180E090E02CE330E088
:1037C00040E050E00E94D3B17F936F933F932F93DB
:1037D00086E492E09F938F938E010F5F1F4F1F939C
:1037E0000F930E947DAE0FB6F894DEBF0FBECDBF23
:1037F000E0E1FDE18491882341F09091C00095FFC4
:10380000FCCF8093C6003196F5CFF80181918823D3
:1038100039F09091C00095FFFCCF8093C600F6CFA1
:103820008091C00085FFFCCF8AE08093C600809124
:103830004909882311F40C94B22710924909609128
:10384000070970910809072E000C880B990B0E943C
:10385000B2AE20916A0230916B0240916C0250919D
:103860006D020E94EFA8181614F00C94B227109263
:1038700008091092070980E090E00E9494630C947C
:10388000B22783E50E942C3F882311F40C94B227C1
:103890000E943F3F7C018F3F910519F010F00C947E
:1038A000B22780E50E942C3F882339F00E943F3FD9
:1038B0008C0197FF04C00C94B2270DE010E0E4E9FE
:1038C000F2E0819191910817190711F40C94B22735
:1038D00082E0EA3CF807A9F761E0802F0E947E6051
:1038E0006E2D802F0E945B4EB701802F0E94BA6020
:1038F0000930110511F00C94B227F092D60FE09226
:10390000D50F0C94B2270E9404980C94B227809192
:10391000661290916712019711F00C94B22782E021
:1039200090E090936712809366120E94BA61609350
:103930006E1270936F1280937012909371120C94A8
:10394000B2270E94FD8B0C94B22788E690E00E947B
:10395000D28F81110C94B2278091D70F83FF02C0C0
:103960000C94B22783E50E942C3F882311F40C9419
:10397000B2270E944C3F4B015C010091520410E0C1
:10398000C801880F991FDC01A95FB64F7D01C501F1
:10399000B4010E940DA8F70171836083C8010E94E1
:1039A000946320E030E04AEA52E4C501B4010E9489
:1039B000ACAE18160CF454CD0E94FD8B0C94B227BB
:1039C0000E9469A40C94B2270E943EA40C94B227D2
:1039D0000E942DA40C94B2270E94E89710925309DC
:1039E000109252090C94AF280E947C960C94B22736
:1039F0008091D70F83FF02C00C94B22783E50E9409
:103A00002C3F182F81110C94172882E50E942C3F1F
:103A100081110C9417286091050970910609072EF1
:103A2000000C880B990B0E94B2AE2091EB083091EC
:103A3000EC084091ED085091EE08112331F00E94FE
:103A4000ACAE87FF02C00C94B22710924E04412CFA
:103A5000512C3201812C912C54011AE00E94BA6140
:103A60006B017C01DC01CB0184199509A609B7091A
:103A7000B7FD4AC026013701F8EE4F0EF3E05F1E96
:103A8000611C711C0E94E395EDE5F2E084918823AE
:103A900041F09091C00095FFFCCF8093C600319615
:103AA000F5CF81149104A104B104D9F0D501C4016A
:103AB000805F984DAF4FBF4FBC01CD016C197D09A0
:103AC0008E099F0928EE33E040E050E00E94D3B118
:103AD000CA01B9010E94988A8091C00085FFFCCF7D
:103AE00011C0EBE5F2E08491882341F09091C00091
:103AF00095FFFCCF8093C6003196F5CF8091C00032
:103B000085FFFCCF1093C60080E00E944E6B0E94A0
:103B100096436091050970910609072E000C880BE9
:103B2000990B0E94B2AE9B01AC016091EB087091C1
:103B3000EC088091ED089091EE080E94C8A69F774E
:103B400020E030E040E450E481149104A104B10489
:103B500049F40E94ACAE87FF09C00E94BA614B01D4
:103B60005C0104C00E94EFA81816BCF380914E04BB
:103B700081110C94B22781149104A104B10409F4B9
:103B80006DCF20E1C21A27E2D20AE108F108C81875
:103B9000D908EA08FB08F7FC61CF0C94B22783E54B
:103BA0000E942C3F882321F00E943F3F8C0102C0DD
:103BB0000FEF10E080E50E942C3F882319F00E944F
:103BC0003F3F02C080E090E098010F3F110519F0DF
:103BD00010F02FEF30E0892B11F00C94B2273093C6
:103BE000D60F2093D50F0C94B22780E50E942C3F6E
:103BF000811106C01092D60F1092D50F0C94B227E7
:103C00000E943F3F892BB1F30C94B227269A2E983D
:103C10000C94B227109256040C94B22781E0809342
:103C200056040C94B3270E94D6A30C94B22783E5C4
:103C30000E942C3F882311F40C94B2270E944C3F21
:103C400020E030E04AE754E40E949DAA0E9412A8B6
:103C500060934E0970934F098093500990935109D6
:103C60000C94B22710E9812E12E0912E0EEC16E092
:103C700089EBA82E8FE0B82E88E89AE0A2969FAF35
:103C80008EAFA297312CD4018D914D010E942C3F13
:103C9000882309F462C0B3E03B1258C00E944C3F35
:103CA0002B013C0120E030E040EA51E40E94ACAE40
:103CB00087FF45C0A3019201F80160817181828173
:103CC00093810E94A5A76B017C019B01AC016091CF
:103CD000A10F7091A20F8091A30F9091A40F0E9449
:103CE0009DAA6093A10F7093A20F8093A30F90934E
:103CF000A40FA7019601D5016D917D918D919C91A5
:103D00000E949DAAF5016083718382839383A296AA
:103D1000AEADBFADA2976D917D918D919C910E94AA
:103D2000B0AEA70196010E949DAA0E9412A8A29679
:103D3000EEADFFADA2976083718382839383D80138
:103D40004D925D926D927C92139707C00E944C3FFA
:103D5000F801608371838283938333940C5F1F4FD8
:103D6000F4E0AF0EB11CA2962EAD3FADA2972C5F32
:103D70003F4FA2963FAF2EAFA29734E0331283CFCE
:103D80000C94B2270E94C8A30C94B2270E940B681F
:103D90000C94B22781E08093210280934F040C940D
:103DA000B3271092210210924F040C94B2279091E5
:103DB000C00095FFFCCF8093C60081918111F7CFA1
:103DC0008091C00085FFFCCF8AE08093C600E1E7C8
:103DD000F2E08491882341F09091C00095FFFCCFE0
:103DE0008093C6003196F5CF649903C0E1E2F3E019
:103DF00009C0E6E2F3E006C09091C00095FFFCCF59
:103E00008093C60081918111F7CF8091C00085FF1A
:103E1000FCCF8AE08093C600E9E6F2E08491882333
:103E200041F09091C00095FFFCCF8093C600319681
:103E3000F5CF659903C0E1E2F3E009C0E6E2F3E003
:103E400006C09091C00095FFFCCF8093C600819181
:103E50008111F7CF8091C00085FFFCCF8AE080936D
:103E6000C600E1E6F2E08491882341F09091C00021
:103E700095FFFCCF8093C6003196F5CF809103016A
:103E800080FF03C0E1E2F3E009C0E6E2F3E006C030
:103E90009091C00095FFFCCF8093C6008191811165
:103EA000F7CF8091C00085FFFCCF8AE08093C600E9
:103EB0000C94B22788EC90E00E94D28F81110C9470
:103EC000B22784E40E942C3F882311F40C94B2277B
:103ED0000E944C3F6B017C0111E020E030E0A90121
:103EE0000E94ACAE811101C010E01093CF041123E9
:103EF00039F1E091520484E0E89FF0011124EB5F76
:103F0000FD4FC082D182E282F38220E030E0A9013D
:103F1000609105027091060280910702909108025B
:103F20000E94ACAE81110CC080E090E0A0E4B0E44F
:103F30008093050290930602A0930702B0930802B3
:103F40000E94BF6A0C94B227A8E9EA2EAAE0FA2ED2
:103F500000E912E0B4E0DB2ED00ED8018D918D0186
:103F60000E942C3F882349F00E944C3F0E9412A8D7
:103F7000F7016083718382839383F4E0EF0EF11C79
:103F8000D012EBCF0E94FA7AEDC7E9EBEE2EEFE00C
:103F9000FE2E00E912E0F4E0DF2ED00ED8018D9164
:103FA0008D010E942C3F882339F00E944C3FF7017D
:103FB0006083718382839383F4E0EF0EF11CD0124F
:103FC000EDCFD0C783E50E942C3F8823F9F00E94F3
:103FD0004C3FAB01BC014093AD0F5093AE0F6093CB
:103FE000AF0F7093B00F4093B10F5093B20F609327
:103FF000B30F7093B40F83ED92E00E946D438091F4
:10400000C00085FFFCCF8AE08093C60080E50E9457
:104010002C3F8823B9F00E944C3FAB01BC01409378
:10402000AD0F5093AE0F6093AF0F7093B00F86EB50
:1040300092E00E946D438091C00085FFFCCF8AE032
:104040008093C60082E50E942C3F8823B9F00E942D
:104050004C3FAB01BC014093B50F5093B60F60933A
:10406000B70F7093B80F87E992E00E946D4380917B
:10407000C00085FFFCCF8AE08093C60084E50E94E3
:104080002C3F882309F46EC70E944C3FAB01BC0152
:104090004093B10F5093B20F6093B30F7093B40F6E
:1040A00089E792E00E946D438091C00085FFFCCFBC
:1040B0008AE08093C60056C783E50E942C3F882380
:1040C00051F00E944C3F6093D10F7093D20F8093B8
:1040D000D30F9093D40F84E50E942C3F882351F096
:1040E0000E944C3F6093CD0F7093CE0F8093CF0F03
:1040F0009093D00F82E40E942C3F882361F00E94AD
:104100004C3F0E9412A86093C90F7093CA0F80930E
:10411000CB0F9093CC0F88E50E942C3F882351F061
:104120000E944C3F6093A90F7093AA0F8093AB0F2E
:104130009093AC0F8AE50E942C3F882351F00E9497
:104140004C3F6093A50F7093A60F8093A70F909399
:10415000A80F85E40E942C3F882309F403C70E941E
:104160004C3F6093A10F7093A20F8093A30F909385
:10417000A40FF8C60F5F1F4FB4E0CB0ED11CE4E0D4
:10418000EE0EF11C0330110511F40C948417D501C7
:104190008D915D010E942C3F882361F30E944C3F6A
:1041A0002B013C01F70120813181428153810E9422
:1041B000C8A69B01AC01D6016D917D918D919C911A
:1041C0000E94C9A6F6016083718382839383D7011D
:1041D0004D925D926D927C921397C8010E94E63ECB
:1041E000C9CF83E50E942C3F882309F4BBC60E94F7
:1041F0004C3F0E940DA87093020260930102B2C668
:1042000083E50E942C3F882309F4ACC60E944C3FF2
:104210000E940DA86B017C018DED90E00E94D28F71
:104220008111A0C6E0915204F0E0EE0FFF1FE458A8
:10423000FD4FD182C08296C680E50E942C3F882324
:1042400009F490C60E944C3F0E940DA8D62EE62E7F
:10425000F72E83E50E942C3F882331F00E944C3FCB
:104260000E940DA88B0102C00FEF1FEFC80101963D
:10427000039708F077C6E4E9F2E0819191918E15F9
:104280009F0509F46FC622E0EA3CF207B1F7F7FC9C
:1042900069C60E940168FD2C60E08D2D0E947E6041
:1042A0000F3F3FEF130731F00130110571F401E0CA
:1042B00010E00DC08D2D0E94859531E020E0892B06
:1042C00009F030E0032F122F02C000E010E08F2D24
:1042D0000E9485958017910709F444C680E00E94EA
:1042E0004E6BF5CF85E40E942C3F811110C080E514
:1042F0000E942C3F8823A9F00E944C3F6093130238
:104300007093140280931502909316020AC00E94C3
:104310004C3F0E940DA8161617064CF7E4E8FDE086
:10432000D8C089E40E942C3F882381F00E944C3F32
:104330002CE933E549E45EE30E949DAA60931B02E9
:1043400070931C0280931D0290931E0284E40E94CD
:104350002C3F882381F00E944C3F2CE933E549E44F
:104360005EE30E94A5A760930F02709310028093F2
:1043700011029093120283E40E942C3F882351F093
:104380000E944C3F60930B0270930C0280930D02CD
:1043900090930E028CE40E942C3F882341F00E94EF
:1043A0004C3F0E940DA870930A026093090280910D
:1043B000090290910A02C39734F082E390E090934F
:1043C0000A02809309020E94C467E0E1FDE1849142
:1043D000882341F09091C00095FFFCCF8093C600E8
:1043E0003196F5CFE9E4F3E08191882339F090919B
:1043F000C00095FFFCCF8093C600F6CF60911302FA
:1044000070911402809115029091160242E00E9470
:10441000BE8AEDE4F3E08191882339F09091C000E9
:1044200095FFFCCF8093C600F6CF2CE933E549E435
:104430005EE360911B0270911C0280911D029091BD
:104440001E020E94A5A742E00E94BE8AE1E5F3E0B9
:104450008191882339F09091C00095FFFCCF809323
:10446000C600F6CF2CE933E549E45EE360910F0224
:104470007091100280911102909112020E949DAAE7
:1044800042E00E94BE8AE5E5F3E08191882339F09D
:104490009091C00095FFFCCF8093C600F6CF60914D
:1044A0000B0270910C0280910D0290910E0242E07D
:1044B0000E94BE8A8091C00085FFFCCF8AE0809375
:1044C000C60050C59091C00095FFFCCF8093C600F8
:1044D000319684918111F6CFE9E5F3E0819188234B
:1044E00039F09091C00095FFFCCF8093C600F6CFC5
:1044F0008091C00085FFFCCF8AE08093C60032C562
:1045000083E50E942C3F882319F00E944C3F03C092
:1045100060E070E0CB01609382027093830280932D
:104520008402909385021EC50E9401681BC588E81D
:1045300093E190937C0F80937B0F80916F008D7F30
:1045400080936F009091F0048091F104981769F0C6
:104550009091F0048091F1049817A1F38091F104F7
:104560008F5F8F708093F104EDCF10927A0F1092CD
:10457000790F80916F00826080936F00F3C480E6B2
:1045800099E0AE969FAF8EAFAE97A0EDB4E0A69641
:10459000BFAFAEAFA697EAE9F6E0A296FFAFEEAFE7
:1045A000A29700E010E0212C312CAE96AEADBFAD4D
:1045B000AE978D91AE96BFAFAEAFAE97882309F49C
:1045C000A0C0F801E65BFD4F20813181428153811B
:1045D000F801EA5AFD4F60817181828193810E94C6
:1045E000C9A620E030E040E05FE30E949DAA9B0165
:1045F000AC01A296EEADFFADA29760817181828180
:1046000093810E94EFA8181644F4C8018B559B4E65
:104610000E94E03E9B01AC0103C020E030E0A90114
:10462000A296AEADBFADA2978D909D90AD90BC907F
:10463000C501B4010E94C8A66B017C0120E030E0F6
:1046400040EA51EC0E94EFA81816CCF520E030E0CB
:1046500040EA51E4C701B6010E94ACAE87FF2FC00B
:10466000A696EEADFFADA697408051806280738024
:10467000A7019601C301B2010E94C8A66B017C018B
:10468000A30192010E94C8A69B01AC01C501B4011F
:104690000E94C9A6A296AEADBFADA2976D937D93C1
:1046A0008D939C931397A696EEADFFADA697C0820F
:1046B000D182E282F382C1010E94E63E22C0E4E898
:1046C000FDE08491882341F09091C00095FFFCCFDC
:1046D0008093C6003196F5CFEBEFF2E0849188230A
:1046E00041F09091C00095FFFCCF8093C6003196B9
:1046F000F5CF8091C00085FFFCCF8AE08093C60093
:1047000031C4FFEF2F1A3F0AA6962EAD3FADA697F4
:104710002C5F3F4FA6963FAF2EAFA6970C5F1F4F63
:10472000A2968EAD9FADA2970496A2969FAF8EAF34
:10473000A29793E02916310409F037CF0C9484171F
:10474000A0968FADA0976F969FAD6F97212F30E009
:10475000899FC001112444E02817390754F4BE0191
:10476000695B7F4FCE01855A9F4F0E9417901F5F54
:10477000E7CF6BEC74E0CE01855A9F4F0E941790F3
:104780002B961CAE1DAE1EAE1FAE2B971AE011501D
:1047900051F044E0BE01695B7F4FCE01855A9F4FC7
:1047A0000E941790F4CF84EB90E06B969FAF8EAF92
:1047B0006B978CE390E069969FAF8EAF6997679691
:1047C0001FAE1EAE679780EF90E065969FAF8EAFED
:1047D00065978AE590E063969FAF8EAF6397619689
:1047E0001FAE1EAE619742E0BE01675A7F4FCE01F9
:1047F000855A9F4F0E94179042E0BE01695A7F4F31
:10480000CE01855A9F4F0E94179042E0BE016B5A1D
:104810007F4FCE01855A9F4F0E94179042E0BE0104
:104820006D5A7F4FCE01855A9F4F0E94179042E0EC
:10483000BE016F5A7F4FCE01855A9F4F0E9417903D
:1048400042E0BE01615B7F4FCE01855A9F4F0E94BF
:104850001790C12C30E8D32E3BE3E32E35E4F32E42
:10486000111121C044E063E172E0CE01855A9F4FEF
:104870000E94179044E06BE172E0CE01855A9F4F91
:104880000E94179044E06FE072E0CE01855A9F4F7E
:104890000E94179044E06BE072E0CE01855A9F4F72
:1048A0000E94179022C02B96CCAEDDAEEEAEFFAECE
:1048B0002B9744E0BE01695B7F4FCE01855A9F4F25
:1048C0000E9417902B961CAE1DAE1EAE1FAE2B97EE
:1048D00004E0015051F044E0BE01695B7F4FCE011E
:1048E000855A9F4F0E941790F4CF1F5F143009F034
:1048F000B7CF42E069E072E0CE01855A9F4F0E9437
:10490000179080E090E8ABE3B5E423968CAF9DAFC1
:10491000AEAFBFAF23978BAF9CAFADAFBEAF88A399
:1049200099A3AAA3BBA344E0BE01615C7F4FCE0163
:10493000855A9F4F0E94179044E0BE01655C7F4FEF
:10494000CE01855A9F4F0E94179044E0BE01605EE1
:104950007F4FCE01855A9F4F0E94179080E290E0D2
:104960002F969FAF8EAF2F9742E0BE01635B7F4FC4
:10497000CE01855A9F4F0E94179080E090E0A0E8FA
:10498000BFE32B968CAF9DAFAEAFBFAF2B9744E08C
:10499000BE01695B7F4FCE01855A9F4F0E941790E1
:1049A00041E06FEC74E0CE01855A9F4F0E94179052
:1049B00010E011110EC08091050290910602A091A5
:1049C0000702B09108022B968CAF9DAFAEAFBFAF80
:1049D0002B9744E0BE01695B7F4FCE01855A9F4F04
:1049E0000E9417901F5F143021F786E592E3A3E33E
:1049F000B0E089839A83AB83BC8384E690E02D96F4
:104A00009FAF8EAF2D9744E0BE016F5F7F4FCE0109
:104A1000855B9F4F0E941790E0E1FDE18491882320
:104A200041F09091C00095FFFCCF8093C600319675
:104A3000F5CF6D966EAD7FAD6D9780E293E00E94ED
:104A40007E43E8E1F3E08491882341F09091C00037
:104A500095FFFCCF8093C6003196F5CF8091C000C2
:104A600085FFFCCF8AE08093C6007CC20E944C4A3E
:104A700079C20E94F14876C283E50E942C3F182F2C
:104A8000882351F00E944C3F11E020E030E0A90162
:104A90000E94ACAE811110E0812F0E944D4562C290
:104AA000E0E1FDE18491882341F09091C00095FF01
:104AB000FCCF8093C6003196F5CFE5E4F3E0849116
:104AC000882341F09091C00095FFFCCF8093C600F1
:104AD0003196F5CF8091C00085FFFCCF80E28093B6
:104AE000C6008AE50E942C3F882309F44BC00E942F
:104AF0004C3F6B017C0120E030E040EA51EC0E9429
:104B0000EFA887FD18C020E030E040EA51E4C7017B
:104B1000B6010E94ACAE181674F0C092CB04D092CD
:104B2000CC04E092CD04F092CE0442E0C701B6017D
:104B30000E94BE8A33C0EDE3F3E08491882341F004
:104B40009091C00095FFFCCF8093C6003196F5CFC1
:104B50006CEE7FEF8FEF9FEF0E94988AE5E3F3E022
:104B60008491882341F09091C00095FFFCCF809301
:104B7000C6003196F5CF64E170E080E090E00E94DD
:104B8000988A0CC04091CB045091CC046091CD0424
:104B90007091CE0482E393E00E946D438091C00047
:104BA00085FFFCCF8AE08093C600DCC120918202A1
:104BB0003091830240918402509185026091F50802
:104BC0007091F6088091F7089091F8080E94ACAEB9
:104BD00087FD36C1EAE9F6E083E699E08E010F5FD2
:104BE0001F4F4191519161917191DC014D935D9302
:104BF0006D937D93CD01D8014D935D936D937D931E
:104C00008D01B6E0EA3AFB0761F780E50E942C3F90
:104C1000882309F441C0E0915004F091510481814E
:104C2000813451F0823459F0833461F00E944C3F5A
:104C30000E940DA88B0108C002E010E005C003E04F
:104C400010E002C00FE010E083E50E942C3F8823B3
:104C500029F00E944C3F0E940DA802C06FEF7FEF29
:104C6000CB0101960397F0F417FD1CC06F3FEFEFE7
:104C70007E0739F061307105C9F4EE24E394F12C1C
:104C800017C0802F0E94859531E020E0892B09F024
:104C900030E0E32EF22E0CC0EE24EA94FE2C0FEF4F
:104CA0001FEF06C0EE24EA94FE2C02C0E12CF12C8A
:104CB00085E40E942C3F882379F00E944C3F9B01A1
:104CC000AC0160916F0970917009809171099091A8
:104CD00072090E94C9A60EC020E030E040E050E416
:104CE00060916F09709170098091710990917209BA
:104CF0000E94C8A660936F09709370098093710930
:104D0000909372090E946C3E8AE50E942C3F882392
:104D100029F00E944C3F9B01AC0104C020E030E030
:104D200040E251E460916B0970916C0980916D09CA
:104D300090916E090E94C9A660936B0970936C09EB
:104D400080936D0990936E090E946C3E88E50E94E5
:104D50002C3F882359F00E944C3F60936309709365
:104D6000640980936509909366090CC080E090E027
:104D7000A3E4B3E48093630990936409A093650965
:104D8000B093660989E50E942C3F882359F00E9460
:104D90004C3F609367097093680980936909909309
:104DA0006A090CC080E090E0A3E4B3E48093670953
:104DB00090936809A0936909B0936A090E946C3EB8
:104DC0008CE40E942C3F882329F00E944C3F9B01D9
:104DD000AC0103C020E030E0A90160916F0970913F
:104DE000700980917109909172090E94C9A660931F
:104DF0006F097093700980937109909372090E94F2
:104E00006C3E0E940168129A64E670E080E090E0D7
:104E10000E94826183E090E090935309809352094D
:104E2000812C912C54010F3F2FEF120709F429C157
:104E3000802F0E9485958E159F0509F002C121C122
:104E4000E4E8FDE08491882341F09091C00095FF53
:104E5000FCCF8093C6003196F5CFE0E5F3E0849176
:104E6000882341F09091C00095FFFCCF8093C6004D
:104E70003196F5CF8091C00085FFFCCF8AE080930A
:104E8000C60070C0602F002371F1E0E1FDE1849164
:104E9000882341F09091C00095FFFCCF8093C6001D
:104EA0003196F5CF8091C00085FFFCCF84E58093DB
:104EB000C60070E080E090E04AE00E94238AE9E5C5
:104EC000F3E08191882339F09091C00095FFFCCFE9
:104ED0008093C600F6CF8091C00085FFFCCF8AE0AA
:104EE0008093C6003FC01092520486E40E942C3F7B
:104EF000882399F00E944C3F6B017C0120E030E058
:104F0000A9010E94EFA8181644F4C0927302D0922F
:104F10007402E0927502F0927602E0E1FDE1849184
:104F2000882341F09091C00095FFFCCF8093C6008C
:104F30003196F5CFEAE6F3E08191882339F090913C
:104F4000C00095FFFCCF8093C600F6CF60E070E014
:104F5000CB010E94988A8091C00085FFFCCF8AE037
:104F60008093C60081E01092530910925209882361
:104F700011F40C947E0F0E94EE71F1C09091C0006C
:104F800095FFFCCF8093C600319684918111F6CFB6
:104F9000EBE7F3E08491882341F09091C00095FF06
:104FA000FCCF8093C6003196F5CFE0915A04F09182
:104FB0005B048191882339F09091C00095FFFCCF6C
:104FC0008093C600F6CFE8E7F3E08491882399F256
:104FD0009091C00095FFFCCF8093C6003196F5CF2D
:104FE0000E943F3FAC01990F660B770B409357121D
:104FF000509358126093591270935A1286EA91E1B5
:105000000E94CC57AFCF0E943F3FAC01990F660B77
:10501000770B409357125093581260935912709324
:105020005A1286EA91E10E94CC570C94C51B0E944B
:105030004C3F0E940DA870930609609305090C94DB
:105040000B1D0E94BA612B013C01481859086A08DF
:105050007B0877FC12C04B015C01F4EC8F0EF9E089
:105060009F1EA11CB11C5F988A989FB7F8948091ED
:1050700008018E7F809308019FBF81E00E944E6BE4
:10508000D2CE81E090E090935309809352098CE452
:105090000E942C3F8823B1F00E944C3F9B01AC0141
:1050A00060916F09709170098091710990917209F6
:1050B0000E94C8A660936F0970937009809371096C
:1050C0009093720980916F0990917009A091710974
:1050D000B09172098093A6069093A706A093A806A4
:1050E000B093A9060E94DD8D0E946C3E89819A8151
:1050F000AB81BC818093630990936409A093650997
:10510000B09366098D819E81AF81B88580936709D0
:1051100090936809A0936909B0936A090E946C3E54
:1051200089859A85AB85BC8580936B0990936C09C2
:10513000A0936D09B0936E090E946C3E8D859E858B
:10514000AF85B88980936F0990937009A093710916
:10515000B09372090E946C3E0E94016803CFC5564D
:10516000DF4F0FB6F894DEBF0FBECDBFDF91CF91FA
:105170001F910F91FF90EF90DF90CF90BF90AF9075
:105180009F908F907F906F905F904F903F902F9067
:1051900008952F923F924F925F926F927F928F92DB
:1051A0009F92AF92BF92CF92DF92EF92FF920F93B6
:1051B0001F93CF93DF93CDB7DEB7C25AD1090FB695
:1051C000F894DEBF0FBECDBF0DB71EB7CA57DF4F75
:1051D00019830883C658D04080916009882321F044
:1051E00080916109811104C00E944B3D0C94203CC8
:1051F00086E50E942C3F882339F00E943F3FA99604
:105200009FAF8EAFA99706C021E030E0A9963FAFCF
:105210002EAFA997A9964EAD5FADA9974530510520
:10522000B0F0ECE4F5E08491882341F09091C00067
:1052300095FFFCCF8093C6003196F5CF8091C000DA
:1052400085FFFCCF8AE08093C6000C94203C84E468
:105250000E942C3FE8968FAFE89785E40E942C3F90
:10526000AE968FAFAE97A9968EAD9FADA9970397D7
:105270007CF484E50E942C3FC257DF4F8883CE58D0
:10528000D040A996AEADBFADA997AB2B69F106C0D2
:10529000B1E0C257DF4FB883CE58D040E5E3F5E028
:1052A0008491882341F09091C00095FFFCCF8093BA
:1052B000C6003196F5CFE896EFADE897EE23A1F062
:1052C000EDE1F5E08491882341F09091C00095FFD5
:1052D000FCCF8093C6003196F5CF8091C00085FF4A
:1052E000FCCF8AE08093C60080E50E942C3F882393
:1052F000B9F00E943F3F67969FAF8EAF67970297C6
:10530000ACF4E5EEF4E08491882311F40C94203C95
:105310009091C00095FFFCCF8093C6003196F3CFEB
:1053200002E010E067961FAF0EAF679783E50E941B
:105330002C3F882319F00E943F3F02C080E49FE188
:1053400090930402809303028CE40E942C3F8823F4
:1053500021F00E943F3F1C0103C0F2E12F2E312CAF
:1053600082E50E942C3F882321F00E943F3F6C0180
:1053700003C0E6EBCE2ED12C86E40E942C3F88237E
:1053800021F00E943F3F7C0103C07AE3E72EF12C1D
:1053900082E40E942C3F882321F00E943F3F8C0131
:1053A00002C004E910E081E02EEF22162FEF320652
:1053B0003CF0960129503109221633060CF480E0A6
:1053C00021E03EECC316D1043CF4A101475F5F4FDE
:1053D0004C155D050CF420E0BB24B39444E1E416C5
:1053E000F1043CF0A80149505109E416F5060CF40B
:1053F000B12CAA24A3940E3C11053CF4A701475FED
:105400005F4F401751070CF4A12C81110CC02223CF
:1054100029F086ED94E00E941E3D15C0B11013C026
:10542000A11017C020C08EED94E0CE55DF4F288329
:10543000C25AD0400E941E3DCE55DF4F2881C25A2D
:10544000D0402111E6CFBB2021F08EEC94E00E94E9
:105450001E3DAA2011F40C94203C87EC94E00E949D
:105460001E3D0C94203CE8965FADE89751112CC08E
:105470000E949C56CE0101960E94AEA589819A8118
:10548000AB81BC8180939A0690939B06A0939C0667
:10549000B0939D068D819E81AF81B88580939E06D5
:1054A00090939F06A093A006B093A10689859A8544
:1054B000AB85BC858093A2069093A306A093A40617
:1054C000B093A5060E94203E0E9401680E94CC4431
:1054D00080E090E0A0E7B3E48093730290937402BD
:1054E000A0937502B093760267968EAD9FAD6797D5
:1054F0000197AB969FAF8EAFAB97C6018219930908
:10550000AB966EAD7FADAB970E9492A6A1967FAF92
:105510006EAFA1976796EEADFFAD6797EE9FD00196
:10552000EF9FB00DB00D1124BEABADABCD01880F18
:10553000991F8A0F9B1F9C01220F331F220F331FBD
:1055400069963FAF2EAF69974DB75EB7421B530BBD
:105550000FB6F8945EBF0FBE4DBF8DB79EB70196D4
:10556000E1969FAF8EAFE1971197C857DF4FB98390
:10557000A883C858D040ADA9BEA9AA0FBB1FAA0FC7
:10558000BB1F2196BFAFAEAF2197EDB7FEB7EA1BA9
:10559000FB0B0FB6F894FEBF0FBEEDBF2DB73EB7A5
:1055A0002F5F3F4FEE963FAF2EAFEE974DB75EB7F2
:1055B0008DA99EA9481B590B0FB6F8945EBF0FBE6C
:1055C0004DBFADB7BEB71196CC57DF4FB983A88397
:1055D000C458D0406696BFAD6697B1702896BFAFED
:1055E0002897C8018E199F09AB966EAD7FADAB971A
:1055F0000E9492A6E3967FAF6EAFE3972D96FFAE23
:10560000EEAE2D97EDA9FEA963E0EE0FFF1F6A95A0
:10561000E1F76B96FFAFEEAF6B97612C712C412CCD
:10562000512CC058DF4F188219821A821B82C05831
:10563000D0402D960EAD1FAD2D97B801110F880BE0
:10564000990B0E94B2AEA5966CAF7DAF8EAF9FAFA7
:10565000A59728961FAD2897111113C0AB962EADB4
:105660003FADAB973CAF2BAF4FEF5FEF25965FAFF2
:105670004EAF25978FEF9FEF63969FAF8EAF6397E7
:1056800010C06796AEADBFAD67976396BFAFAEAFC4
:105690006397E1E0F0E02596FFAFEEAF25971CAEF3
:1056A0001BAE2896FFAD289701E0F0272896FFAFA4
:1056B0002897C201880F991F880F991FEE962EAD6B
:1056C0003FADEE97280F391F6D963FAF2EAF6D9708
:1056D000E1964EAD5FADE197480F591F58AF4FAB04
:1056E0002596AEADBFAD2597A196EEADFFADA197C6
:1056F000AE9FC001AF9F900DBE9F900D1124AD963F
:105700009FAF8EAFAD970BAD1CAD0E9FC0010F9F2D
:10571000900D1E9F900D11249101280F391FA796FF
:105720003FAF2EAFA797480163964EAD5FAD63972D
:105730004A1B5B0BE5965FAF4EAFE597CC57DF4F4B
:1057400088819981C458D040860D971DE7969FAFF8
:105750008EAFE7976396EEADFFAD63978E169F060B
:1057600009F4ECC0A796AEADBFADA797BD01BB0FC6
:10577000880B990B0E94B2AE61966CAF7DAF8EAF75
:105780009FAF61974114510469F020E030E040EA96
:1057900050E46091A2067091A3068091A4069091B6
:1057A000A5060CC020E030E040E751E46091D80449
:1057B0007091D9048091DA049091DB040E94C9A60B
:1057C000AE96BFADAE97B1111EC06114710451F415
:1057D00021E0D12CEBADFCAD8E169F0609F020E048
:1057E000C22E16C0AB960EAD1FADAB9760167106FC
:1057F00069F4E5962EAD3FADE5978216930631F438
:10580000B2E0CB2E04C0A3E0CA2E01C0C12CD12C23
:10581000A996AEACBFACA9977B018C01A5962CAD27
:105820003DAD4EAD5FADA59761966CAD7DAD8EADD6
:105830009FAD61970E942E446B017C019B01AC01DE
:10584000C058DF4F688179818A819B81C058D040E0
:105850000E94C9A6C058DF4F688379838A839B83DF
:10586000C058D0406D96AEADBFAD6D97CD92DD9274
:10587000ED92FD926D96BFAFAEAF6D9761960CAD98
:105880001DAD2EAD3FAD6197AFA9B8AD0D931D9382
:105890002D933C931397FD0121960EAD1FAD2197DB
:1058A000E00FF11FA5962CAD3DAD4EAD5FADA597B8
:1058B0002083318342835383FD016B964EAD5FADF0
:1058C0006B97E40FF51F80E090E0A0E8BFE38083D2
:1058D0009183A283B3836796AEADBFAD67978A9E6F
:1058E000F0018B9EF00D9A9EF00D1124E7960EADFF
:1058F0001FADE797E00FF11F40821FEF411A510AD9
:1059000080E00E944E6B25962EAD3FAD2597820E0E
:10591000931E4FA958AD4C5F5F4F58AF4FABA79642
:105920008EAD9FADA797AD96AEADBFADAD978A0FCB
:105930009B1FA7969FAF8EAFA7970CCFFFEF6F1A55
:105940007F0A2D960EAD1FAD2D97E3962EAD3FAD80
:10595000E397020F131F2D961FAF0EAF2D9767967B
:105960004EAD5FAD6797641675060CF462CE0E946B
:10597000A1438DB79EB7CD56DF4F99838883C35916
:10598000D040ADB7BEB76996EEADFFAD6997AE1B1F
:10599000BF0B0FB6F894BEBF0FBEADBF0DB71EB79D
:1059A0000F5F1F4F18AF0FAB2DB73EB721964EAD0F
:1059B0005FAD2197241B350B0FB6F8943EBF0FBE89
:1059C0002DBF8DB79EB70196AF969FAF8EAFAF97A5
:1059D00060E070E0E3E0F0E040E050E020E030E044
:1059E000CA01860F971FAFA8B8ACA80EB91EE196E2
:1059F000AEADBFADE1978A0F9B1FDC01CD90DD906E
:105A0000ED90FC90D501CD92DD92ED92FC92139732
:105A10002F5F3F4F4C5F5F4F0DA91EA92017310725
:105A2000F9F6319721962EAD3FAD2197620F731F86
:105A3000309791F6AFA9B8ADCD90DD90ED90FC9088
:105A400020E030E0A901C701B6010E94ACAE87FF9B
:105A500004C0F7FAF094F7F8F094EFA9F8ADEA96DD
:105A6000FFAFEEAFEA974F0103E010E0A7961FAF3C
:105A70000EAFA797A12CB12C00E010E0F401EA0DC5
:105A8000FB1D408051806280738020E030E0A901DE
:105A9000C301B2010E94ACAE87FF04C077FA7094D4
:105AA00077F87094A3019201C701B6010E94ACAED1
:105AB00087FF02C0730162010F5F1F4F24E0A20E37
:105AC000B11C4DA95EA904171507C1F6A7968EADA6
:105AD0009FADA7970197A7969FAF8EAFA7972196E7
